:100000000C945F000C94020C0C942F0C0C94870041
:100010000C9487000C9487000C9487000C94870044
:100020000C9487000C9487000C9487000C94870034
:100030000C9487000C9487000C9487000C94870024
:100040000C945C0C0C9487000C94320F0C94640F8D
:100050000C9487000C9487000C9487000C94870004
:100060000C9454080C948700000000080002010062
:100070000003040700000000000000000102040863
:100080001020408001020408102001020408102002
:10009000040404040404040402020202020203032E
:1000A0000303030300000000250028002B000000CC
:1000B0000000240027002A0077057207940F1124FE
:1000C0001FBECFEFD8E0DEBFCDBF12E0A0E0B1E0B1
:1000D000EAE8F8E202C005900D92A034B107D9F722
:1000E00026E0A0E4B2E001C01D92AB38B207E1F710
:1000F00010E0CEEBD0E004C02297FE010E943F1436
:10010000C83BD107C9F70E94D80F0C9443140C9434
:100110000000CF93DF930E94A60C60934802709377
:10012000490280934A0290934B0280914802909139
:100130004902A0914A02B0914B0240914402509171
:1001400045026091460270914702841B950BA60BF5
:10015000B70B8093400290934102A0934202B09368
:1001600043028091400290914102A0914202B091DD
:1001700043020B97A105B105E0F160915002709127
:100180005102809152029091530228E539E344E3F1
:100190005CE30E94DE1160935002709351028093E1
:1001A000520290935302C091160584E0C89FE0016B
:1001B0001124C858DD4F688179818A819B8128E5A7
:1001C00039E344E35CE30E94DE11688379838A8328
:1001D0009B838091480290914902A0914A02B0917C
:1001E0004B028093440290934502A0934602B09341
:1001F0004702DF91CF9108950F931F930E94A60CA1
:1002000000910D0510910E0520910F0530911005FC
:10021000601B710B820B930B6B307105810591058F
:1002200078F00E94A60C60930D0570930E058093E4
:100230000F059093100580910C058F5F80930C053E
:100240001F910F9108951092500210925102109236
:1002500052021092530210926E0210926F0210928C
:1002600070021092710210926D0210926C02109244
:100270001605109218050E94A60C60931B0570933A
:100280001C0580931D0590931E0510921A0510926F
:10029000190508958F929F92AF92BF92CF92DF92ED
:1002A000EF92FF920E94A60CC0901105D09012050B
:1002B000E0901305F09014056C197D098E099F09D3
:1002C0000E94DF124B015C0160910C0570E080E040
:1002D00090E00E94DF126B017C0120E030E04AE7F1
:1002E00054E4C501B4010E9446129B01AC01C70150
:1002F000B6010E9446126B017C0110920C050E940F
:10030000A60C6093110570931205809313059093CA
:1003100014052BED39EF4EEB5FE3C701B6010E94E8
:100320009513FF90EF90DF90CF90BF90AF909F908C
:100330008F900895FF920F931F93CF93DF93F82E22
:1003400008E010E0C0E0D0E08F2D0E94380DC80F0B
:10035000D91F01501109C1F7CE0123E09695879569
:100360002A95E1F7DF91CF911F910F91FF900895AA
:10037000CF92DF92EF92FF92CF93DF9300D000D025
:10038000CDB7DEB781E190E00E949A01BC018827D9
:1003900077FD8095982F0E94E1129B01AC018FE0C0
:1003A00090E029833A834B835C830E949A01BC01CD
:1003B000882777FD8095982F0E94E1126B017C01C0
:1003C00029813A814B815C8163E373E383E590E4A7
:1003D0000E9446129B01AC01C701B6010E94951311
:1003E0000F900F900F900F90DF91CF91FF90EF90B3
:1003F000DF90CF900895CF92DF92EF92FF92CF934C
:10040000DF9300D000D0CDB7DEB781E190E00E944D
:100410009A01BC01882777FD8095982F0E94E112F0
:100420009B01AC0180E190E029833A834B835C839C
:100430000E949A01BC01882777FD8095982F0E9421
:10044000E1126B017C0129813A814B815C8163E37C
:1004500073E383E590E40E9446129B01AC01C7015F
:10046000B6010E9495132DEC3CEC4CE950E40E943F
:1004700095130F900F900F900F90DF91CF91FF90F9
:10048000EF90DF90CF9008956F927F928F929F921E
:10049000AF92BF92CF92DF92EF92FF920F931F9392
:1004A000CF93DF93C4E9D4E0C12CD12C76016991BC
:1004B00070E080E090E00E94E1129B01AC01C70176
:1004C000B6010E94DE116B017C0125E0CC30D20721
:1004D00071F720E030E040EF52E40E944612609352
:1004E00068027093690280936A0290936B02209174
:1004F000A4033091A503B901882777FD8095982F33
:10050000A6EAB3E04D915D91FA01E21BF30BEC34E6
:10051000CFEFFC0724F4AF0148595E4F06C0E53B1E
:10052000F1052CF0AF0148565140420F531F8A018C
:10053000222717FD2095322F600F711F821F931FF6
:10054000E4E0A439BE0711F09A01DCCF28E730E0DF
:1005500040E050E00E941E142836F1E03F0714F0FE
:1005600028563140309367022093660280916602DC
:100570009091670297FF06C088599E4F909367023B
:1005800080936602612C712C812C912C0CE713E076
:1005900048E6A42E43E0B42EC0E0D0E0F801C190BC
:1005A000D190E190F1908F019301A401C701B601B0
:1005B0000E94911318162CF4F501C081D1813601E7
:1005C0004701F2E0AF0EB11C23E0043A120731F705
:1005D000C301D4018093620290936302A0936402EA
:1005E000B0936502D0936102C09360028FE195E001
:1005F0000E946A0B60935C0270935D0280935E02BE
:1006000090935F0280E295E00E94250B20E030E0AD
:1006100040E650E40E94DD11609358027093590245
:1006200080935A0290935B0200E010E0B0E0A0E0FB
:10063000C0E0D0E0FE01EE0FFF1FEE0FFF1FE858F5
:10064000FD4F2081318142815381B8018B2F9A2F38
:100650000E94DE118B012196CC33D10519F0B82F01
:10066000A92FE8CFAB01BC0140935402509355022F
:10067000609356027093570280E295E00E94200A30
:1006800060934C0270934D0280934E0290934F0200
:100690000E94B801609300017093010180930201F0
:1006A000909303010E94FB01609304017093050184
:1006B0008093060190930701DF91CF911F910F91D5
:1006C000FF90EF90DF90CF90BF90AF909F908F9072
:1006D0007F906F9008950E94440260E371E08EEE77
:1006E00095E00E94251060917602709177024AE0B1
:1006F00050E08EEE95E00E94E7106BE371E08EEE25
:1007000095E00E9425104091720250917302609111
:1007100074027091750221E030E08EEE95E00E9447
:10072000DA116AE471E08EEE95E00E9425104091A6
:100730006E0250916F02609170027091710221E01F
:1007400030E08EEE95E00E94DA1168E571E08EEE01
:1007500095E00E94251060916C0270916D024AE054
:1007600050E08EEE95E00E94E71066E671E08EEEB6
:1007700095E00E94251040916802509169026091B5
:100780006A0270916B0221E030E08EEE95E00E94EB
:10079000DA1169E771E08EEE95E00E942510609114
:1007A0006602709167024AE050E08EEE95E00E948A
:1007B000E71069E871E08EEE95E00E942510409107
:1007C000620250916302609164027091650221E0BF
:1007D00030E08EEE95E00E94DA116BE971E08EEE6A
:1007E00095E00E94251060916002709161024AE0DC
:1007F00050E08EEE95E00E94E7106DEA71E08EEE1B
:1008000095E00E94251040915C0250915D0260913C
:100810005E0270915F0221E030E08EEE95E00E9472
:10082000DA1168EB71E08EEE95E00E9425104091A0
:1008300058025091590260915A0270915B0221E076
:1008400030E08EEE95E00E94DA1160EC71E08EEE01
:1008500095E00E94251040915402509155026091FC
:1008600056027091570222E030E08EEE95E00E9431
:10087000DA1169EC71E08EEE95E00E94251040914E
:10088000500250915102609152027091530222E045
:1008900030E08EEE95E00E94DA116FEE71E08EEEA0
:1008A00095E00E94251040914C0250914D026091BC
:1008B0004E0270914F0222E030E08EEE95E00E94F1
:1008C000DA1167ED71E08EEE95E00E9425104091FF
:1008D000040150910501609106017091070122E029
:1008E00030E08EEE95E00E94DA1162EE71E08EEE5D
:1008F00095E00E9425104091000150910101609106
:1009000002017091030122E030E08EEE95E00E943A
:10091000DA116FEE71E08EEE95E00E9425106EEE1A
:1009200071E08EEE95E00C943210A89588E10FB638
:10093000F89480936000109260000FBE26E040E8BB
:1009400055E260E070E08EEE95E00E94D00E62E02D
:1009500083E00E947E0D62E082E00E947E0D60E0F6
:100960008EE00E947E0D60E08FE00E947E0D60E0D0
:1009700080E10E947E0D60E081E10E947E0D61E0D9
:1009800087E00E947E0D0E94230180E295E00E9494
:10099000890980E295E00E94CF0960E880E295E055
:1009A0000E94EB0980E295E00E94040A80E295E053
:1009B0000E94DD098FE195E00E943B0B1092180523
:1009C0000E94A60C60931B0570931C0580931D0567
:1009D00090931E0542E050E069E870E080E00E94DC
:1009E000E20B42E050E06CEF70E081E00E94E20B2D
:1009F000789461EF71E08EEE95E00E9432100C94D5
:100A00006B038EE090E00E949A018C3721E0920700
:100A1000F0F1893821E09207E8F18E3921E0920760
:100A2000E0F1883C21E09207D8F18C3F21E0920769
:100A3000D0F1873222E09207C8F1873622E0920790
:100A4000C0F1883A22E09207B8F18A3E22E092078C
:100A5000B0F1813223E09207A8F1813423E09207BC
:100A6000A0F18E3623E0920798F1813923E09207B6
:100A700090F18C3A23E0920788F1873C23E09207BB
:100A800080F18E3D934080F58EE091E0089581E7FE
:100A900090E0089584E490E008958AE590E0089558
:100AA0008EE990E0089587E890E008958BEC90E05F
:100AB000089584EB90E0089587E190E008958DE239
:100AC00090E0089588EF90E0089581EE90E0089519
:100AD00082E591E0089580E090E0089585E291E05C
:100AE00008958BE391E008958FEF9FEF089580E2E2
:100AF00095E00E9488098FE195E00C943A0BAF9243
:100B0000BF92CF92DF92EF92FF920F931F93CF93FA
:100B1000DF93A8950E94A60CC0901B05D0901C05E1
:100B2000E0901D05F0901E056C197D098E099F0946
:100B3000683E73408105910508F4CCC088EEC80E6C
:100B400083E0D81EE11CF11CC0921B05D0921C054D
:100B5000E0921D05F0921E05809117058F5F883782
:100B600018F48093170502C0109217050E944A01DD
:100B70006093720270937302809374029093750273
:100B80000E940105EC019093770280937602009118
:100B9000170510E0C0907202D0907302E0907402CA
:100BA000F0907502F801EC56FB4F5F01C701B601EA
:100BB0000E94AE12F5016083F801EE0FFF1FEC55A5
:100BC000FC4FD183C083A0901505B12C8501000F87
:100BD000111F000F111F04581C4FF8012081318193
:100BE00042815381C701B6010E949113181664F423
:100BF000F801C082D182E282F382F501EE0FFF1F7D
:100C0000E859FC4FD183C08320916E0230916F026E
:100C10004091700250917102C701B6010E94911378
:100C2000181664F4C0926E02D0926F02E0927002C5
:100C3000F0927102D0936D02C0936C0261E087E084
:100C40000E94B70D69E170E080E090E00E94D50C51
:100C500060E087E00E94B70D809118058F5F809358
:100C600018058C33B8F110921805809116058F5F26
:100C70008C3318F48093160502C0109216058091EB
:100C800015058F5F8A3018F48093150502C0109205
:100C90001505E091160524E0E29FF0011124E858C3
:100CA000FD4F1082118212821382E091150584E0BB
:100CB000E89FF0011124E458FC4F10821182128247
:100CC00013828091190590911A05019690931A0547
:100CD000809319058EEE95E00E94ED0D892BB1F001
:100CE0008EEE95E00E94060E813219F40E946B038D
:100CF0000DC0803419F40E94230108C0833231F4FE
:100D000068E873E180E090E00E94D50C80911905BD
:100D100090911A058B3A954010F00E94230164E6E9
:100D200070E080E090E0DF91CF911F910F91FF90F4
:100D3000EF90DF90CF90BF90AF900C94D50C809146
:100D4000510590E020915205821B91090895209150
:100D5000520580915105281750F4E22FF0E0ED5A2A
:100D6000FA4F808190E02F5F2093520508958FEF16
:100D70009FEF0895E091520580915105E81730F4F6
:100D8000F0E0ED5AFA4F808190E008958FEF9FEFE9
:100D900008950895CF92DF92EF92FF920F931F93E1
:100DA000CF93DF937C01CB018A0120912D05222373
:100DB00089F0EB016B01C40ED51ECC15DD0569F081
:100DC0006991D701ED91FC910190F081E02DC7016F
:100DD0000995F3CF642F0E942B08C801DF91CF91B2
:100DE0001F910F91FF90EF90DF90CF900895CF93D8
:100DF000DF931F92CDB7DEB7698320912D052223A3
:100E0000D1F020912E05203240F021E030E0FC01AD
:100E10003383228380E090E015C080912F05E82F76
:100E2000F0E0E05DFA4F998190838F5F80932F050A
:100E300080932E0505C061E0CE0101960E942B082B
:100E400081E090E00F90DF91CF910895FC01138233
:100E5000128248EE53E060E070E04483558366837D
:100E6000778382E192E09183808308951092520506
:100E70001092510510922F0510922E050C947607B2
:100E8000862F413208F040E263E575E00E94940746
:100E90001092520580935105089521E00C9440076B
:100EA00081E080932D056093500510922F051092DC
:100EB0002E0508950C9450070F93062F21E04091C2
:100EC0002E0560E375E0809150050E94D8071092CE
:100ED0002F0510922E0510922D050F91089561E0B7
:100EE0000C945C0781E295E00C9426071092E005D3
:100EF00081E08093DE051092DD0561E082E10E94D1
:100F0000B70D61E083E10E94B70DE9EBF0E080816D
:100F10008E7F808380818D7F808388E48093B8007A
:100F200085E48093BC000895413208F03FC0909161
:100F3000E0059111FCCF91E09093E0052093DE0550
:100F40002FEF209373051092B805240F2093B70557
:100F50009093DF059091DF05880F892B8093DF0543
:100F60008091DD05813041F41092DD058091DF052F
:100F70008093BB0085EC01C085EE8093BC0080911E
:100F8000E0058130E1F38091B805841710F44091B9
:100F9000B80529EB35E0FB01D9018A2F821B8417A4
:100FA00018F48D918193F9CF842F089580E00895EE
:100FB0000F93413208F046C09091E0059111FCCFAB
:100FC00092E09093E0050093DE059FEF9093730508
:100FD0001092B8054093B705FB0169EB75E0DB01A2
:100FE0009A2F961B941718F491919D93F9CF109214
:100FF000DF059091DF05880F892B8093DF058091B5
:10100000DD05813041F41092DD058091DF0580938C
:10101000BB0085EC01C085EE8093BC00222321F04B
:101020008091E0058230E1F3809173058F3F61F09C
:1010300080917305803251F080917305803341F4C3
:1010400083E007C081E005C080E003C082E001C00A
:1010500084E00F910895613298F42091E0052430E6
:1010600089F460939505FC0187E995E0DC012A2F5E
:10107000281B261718F421912D93F9CF80E00895AD
:1010800081E0089582E0089585ED8093BC00809111
:10109000BC0084FDFCCF1092E005089585EC8093A0
:1010A000BC001092E00508951F920F920FB60F92A8
:1010B00011242F933F934F935F936F937F938F935D
:1010C0009F93AF93BF93EF93FF938091B900887F75
:1010D000803609F49CC068F5883209F45BC090F44E
:1010E000803109F454C038F4882309F4F5C08830FD
:1010F00009F44DC0F5C0883109F44CC0803209F4C0
:101100005DC0EEC0803409F468C048F4803309F44F
:1011100055C0883309F0E4C080937305A8C08035BA
:1011200009F44FC0883509F45DC0883409F0D8C08F
:10113000D5C0883909F4C6C0A8F4883709F467C057
:1011400038F4883609F463C0803709F460C0C8C039
:10115000883809F4B7C0803909F45FC0803809F0D5
:10116000BFC05BC0803B09F485C038F4803A09F405
:1011700066C0883A09F47EC0B3C0803C09F4A6C0BA
:10118000883C09F4A3C0883B09F489C0A9C08091B8
:10119000DF0510C09091B8058091B705981770F5DC
:1011A000E091B80581E08E0F8093B805F0E0E75438
:1011B000FA4F80818093BB0085EC85C080937305D6
:1011C0008DC0E091B80581E08E0F8093B8058091C5
:1011D000BB00F0E0E754FA4F80839091B80580910E
:1011E000B7056DC0E091B80581E08E0F8093B8051A
:1011F0008091BB00F0E0E754FA4F80838091DE05D8
:1012000081116CC081E08093DD0584EA60C083E0D9
:101210008093E00510927405CFCF809174058032E1
:1012200008F050C0E091740581E08E0F8093740542
:101230008091BB00F0E0EB58FA4F8083BDCF8091E6
:101240007405803230F4E0917405F0E0EB58FA4F09
:1012500010820E9444086091740570E0E091D90505
:10126000F091DA0585E795E00995109274050E94E2
:101270004E0836C084E08093E005109296051092E7
:101280009505E091DB05F091DC05099580919505C8
:10129000811105C081E08093950510929705E0913A
:1012A000960581E08E0F80939605F0E0E956FA4F9F
:1012B00080818093BB009091960580919505981749
:1012C00008F47ACF85E88093BC000AC085EC80934F
:1012D000BC001092E00504C0109273050E944408FF
:1012E000FF91EF91BF91AF919F918F917F916F91FE
:1012F0005F914F913F912F910F900FBE0F901F90D4
:101300001895DC01ED91FC910190F081E02D09949C
:10131000089581E295E00C943607CF93C62F60E6DE
:1013200070E081E295E00E945A076C2F81E295E01F
:101330000E94F70660E081E295E00E945C0741E0D0
:1013400050E060E670E081E295E00E944D0781E2A6
:1013500095E00E94A706CF9108951F93CF93DF9346
:101360001F92CDB7DEB7162F60E670E081E295E000
:1013700049830E945A07612F81E295E00E94F70697
:101380004981642F81E295E00E94F70661E081E2E5
:1013900095E00F90DF91CF911F910C945C07CF9354
:1013A000DF93EC0166E20E948D09482F4F7766E2D9
:1013B000CE01DF91CF910C94AD09CF93DF93EC0177
:1013C00066E20E948D09482F416066E2CE01DF91FE
:1013D000CF910C94AD091F93CF93DF93EC01162F9F
:1013E000683008F017E066E2CE010E948D09482FB0
:1013F000477C110F110F110F412B66E2CE01DF91D7
:10140000CF911F910C94AD0947E063E10C94AD09B5
:10141000CF93DF93EC0166E20E948D09482F4D7F48
:1014200066E2CE010E94AD0966E2CE010E948D09FE
:10143000482F426066E2CE01DF91CF910C94AD0956
:10144000CF92DF92EF92FF921F93CF93DF937C01B5
:1014500060E00E948D0960E0C7010E948D0960E68E
:1014600070E081E295E00E945A0761E070E081E25D
:1014700095E00E94810960E081E295E00E945C07AE
:1014800043E050E060E670E081E295E00E944D07A5
:10149000833009F041C081E295E00E94A706D82F71
:1014A00081E295E00E94A706182F81E295E00E9454
:1014B000A706C82FC7010E94080A812F90E0A0E06C
:1014C000B0E06627782F892F9A2F8D2B6C2BC07355
:1014D000D0E034E0D595C7953A95E1F746E095958B
:1014E0008795779567954A95D1F70E94E1126B0130
:1014F0007C016C2F70E080E090E00E94DF1220E021
:1015000030E040E85EE30E9495139B01AC01C70107
:10151000B6010E94DE1104C060E070EC89E794EC33
:10152000DF91CF911F91FF90EF90DF90CF900895C2
:10153000CF92DF92EF92FF92CF93DF936C0160E046
:101540000E948D09C9E5D2E060E0C6010E948D09C4
:1015500081FD0EC0219729F420E030EC49E754ECDE
:101560006BC061E070E080E090E00E94D50CECCFB1
:1015700060E670E081E295E00E945A0764E070E066
:1015800081E295E00E94810960E081E295E00E949D
:101590005C0742E050E060E670E081E295E00E9486
:1015A0004D078230C9F681E295E00E94A706C82F58
:1015B00081E295E00E94A706D82FC6010E94080A82
:1015C000C7FD03C06C2FC0E00CC0FC2EE12CED0E5B
:1015D000F11C222733272E193F09632FD22FD07FEA
:1015E000C1E070E080E090E00E94E1126B017C01BC
:1015F0006D2F70E054E0759567955A95E1F788274F
:1016000077FD8095982F0E94E11220E030E040E8BD
:101610005DE30E9495139B01AC01C701B6010E94D6
:10162000DE119B01AC01CC2339F060E070E0CB010E
:101630000E94DD119B01AC01B901CA01DF91CF917C
:10164000FF90EF90DF90CF9008950E94980A20E0DD
:1016500030E040E151E40E94951320E030E040EAA0
:1016600050E40E94461220E030E040E052E40E9444
:10167000DE110895089581E295E00C9436070F93EA
:101680001F93CB01A0E0B0E0BA2FA92F982F882795
:10169000842BE7E1F0E040E050E868E970E08C017D
:1016A0009D010E2E04C036952795179507950A942F
:1016B000D2F700FF04C084279527A627B727769581
:1016C0006795579547953197E730F10541F71F9199
:1016D0000F910895EF92FF920F931F93CF93DF9393
:1016E0007C0160E470E081E295E00E945A0765EFBA
:1016F00070E081E295E00E94810981E295E00E941C
:101700006F0767E370E080E090E00E94D50C43E053
:1017100050E060E470E081E295E00E944D0705E64C
:1017200010E081E295E00E949F06039774F461E067
:1017300070E080E090E00E94D50C0150110989F71B
:1017400060E070E889E794E436C081E295E00E94A9
:10175000A706082F81E295E00E94A706182F81E2D4
:1017600095E00E94A706D02F90E0C92FC12B482FEB
:10177000BE01C7010E943F0B811119C0BE016C7FE1
:1017800080E090E00E94DF1220E030E040E857E384
:101790000E94951320E030E04AEF52E40E94951336
:1017A00020E030E040EC50E40E94DD1104C060E035
:1017B00070EC89E794E4DF91CF911F910F91FF9036
:1017C000EF9008958230E8F4E82FF0E0EE0FFF1F6D
:1017D000EF51FA4F71836083813041F0809169004D
:1017E0008C7F842B80936900E89A0895809169002A
:1017F000440F551F440F551F837F842B809369002E
:10180000E99A08951F920F920FB60F9211242F9309
:101810003F934F935F936F937F938F939F93AF9378
:10182000BF93EF93FF938091E1059091E205892B9F
:1018300029F0E091E105F091E2050995FF91EF9122
:10184000BF91AF919F918F917F916F915F914F91D8
:101850003F912F910F900FBE0F901F9018951F92E0
:101860000F920FB60F9211242F933F934F935F93D4
:101870006F937F938F939F93AF93BF93EF93FF9358
:101880008091E3059091E405892B29F0E091E3052F
:10189000F091E4050995FF91EF91BF91AF919F9170
:1018A0008F917F916F915F914F913F912F910F9009
:1018B0000FBE0F901F9018951F920F920FB60F92A8
:1018C00011242F933F938F939F93AF93BF93809156
:1018D000E6059091E705A091E805B091E905309102
:1018E000E50523E0230F2D3720F40196A11DB11D3E
:1018F00005C026E8230F0296A11DB11D2093E50522
:101900008093E6059093E705A093E805B093E90579
:101910008091EA059091EB05A091EC05B091ED0561
:101920000196A11DB11D8093EA059093EB05A0934C
:10193000EC05B093ED05BF91AF919F918F913F91D1
:101940002F910F900FBE0F901F9018952FB7F894FE
:101950006091E6057091E7058091E8059091E905B1
:101960002FBF08953FB7F8948091EA059091EB0559
:10197000A091EC05B091ED0526B5A89B05C02F3FC1
:1019800019F00196A11DB11D3FBF6627782F892F41
:101990009A2F620F711D811D911D42E0660F771F06
:1019A000881F991F4A95D1F70895CF92DF92EF9241
:1019B000FF92CF93DF936B017C010E94B20CEB018D
:1019C000C114D104E104F10489F00E94DC110E94E9
:1019D000B20C6C1B7D0B683E734090F381E0C81A1B
:1019E000D108E108F108C851DC4FEACFDF91CF916F
:1019F000FF90EF90DF90CF900895789484B5826047
:101A000084BD84B5816084BD85B5826085BD85B5A2
:101A1000816085BDEEE6F0E0808181608083E1E851
:101A2000F0E0108280818260808380818160808389
:101A3000E0E8F0E0808181608083E1EBF0E080818C
:101A400084608083E0EBF0E0808181608083EAE75E
:101A5000F0E08081846080838081826080838081E7
:101A6000816080838081806880831092C1000895A6
:101A70008E3008F08E5087702091080190E4299FE5
:101A800090011124822B80937C0080917A008064E5
:101A900080937A0080917A0086FDFCCF8091780057
:101AA0002091790090E0922B0895833081F028F402
:101AB000813099F08230A1F008958730A9F0883004
:101AC000B9F08430D1F4809180008F7D03C0809183
:101AD00080008F7780938000089584B58F7702C04F
:101AE00084B58F7D84BD08958091B0008F7703C049
:101AF0008091B0008F7D8093B0000895CF93DF93E5
:101B000090E0FC01E458FF4F2491FC01E057FF4FA7
:101B10008491882349F190E0880F991FFC01E255D8
:101B2000FF4FA591B4918C559F4FFC01C591D49165
:101B30009FB7611108C0F8948C91209582238C93F3
:101B4000888182230AC0623051F4F8948C91322F3C
:101B5000309583238C938881822B888304C0F894EA
:101B60008C91822B8C939FBFDF91CF9108950F931F
:101B70001F93CF93DF931F92CDB7DEB7282F30E0AE
:101B8000F901E859FF4F8491F901E458FF4F14918E
:101B9000F901E057FF4F04910023C9F0882321F099
:101BA00069830E94550D6981E02FF0E0EE0FFF1F61
:101BB000EC55FF4FA591B4919FB7F8948C916111AA
:101BC00003C01095812301C0812B8C939FBF0F9080
:101BD000DF91CF911F910F910895FC01818D228D8E
:101BE00090E0805C9F4F821B91098F739927089525
:101BF000FC01918D828D981731F0828DE80FF11DD7
:101C0000858D90E008958FEF9FEF0895FC01918DF1
:101C1000828D981761F0828DDF01A80FB11D5D964E
:101C20008C91928D9F5F9F73928F90E008958FEFBC
:101C30009FEF08958AE89FE0892B49F080E090E0CB
:101C4000892B29F00E948A0F81110C9400000895BD
:101C5000FC01848DDF01A80FB11DA35ABF4F2C9149
:101C6000848D90E001968F739927848FA689B78918
:101C70002C93A089B1898C9180648C93938D848DF1
:101C8000981306C00288F389E02D80818F7D8083C0
:101C90000895CF93DF93EC01888D8823C9F0EA89FA
:101CA000FB89808185FD05C0A889B9898C9186FD55
:101CB0000FC00FB607FCF5CF808185FFF2CFA88952
:101CC000B9898C9185FFEDCFCE010E94280EE7CF18
:101CD000DF91CF910895CF92DF92FF920F931F93E0
:101CE000CF93DF931F92CDB7DEB76C0181E0D601B1
:101CF00058968C9358975B969C915B975C968C91C9
:101D00005C97981307C05096ED91FC915197808194
:101D100085FD2EC0F601038D10E00F5F1F4F0F737E
:101D20001127F02EF601848DF81211C00FB607FCB2
:101D3000F9CFD6015096ED91FC915197808185FFA6
:101D4000F1CFC60169830E94280E6981EBCF838D94
:101D5000E80FF11DE35AFF4F6083D6015B960C93A9
:101D60005B975296ED91FC915397808180620CC0F5
:101D7000D6015696ED91FC91579760835096ED9160
:101D8000FC91519780818064808381E090E00F9086
:101D9000DF91CF911F910F91FF90DF90CF90089529
:101DA000BF92CF92DF92EF92FF92CF93DF93EC013D
:101DB0006A017B01B22EE889F98982E080834115AE
:101DC00081EE580761057105A1F060E079E08DE3CF
:101DD00090E0A70196010E94FC13215031094109AE
:101DE00051095695479537952795211580E1380774
:101DF00098F0E889F989108260E874E88EE190E053
:101E0000A70196010E94FC13215031094109510993
:101E10005695479537952795EC85FD853083EE855A
:101E2000FF852083188EEC89FD89B082EA89FB89C1
:101E3000808180618083EA89FB89808188608083DA
:101E4000EA89FB89808180688083EA89FB898081B7
:101E50008F7D8083DF91CF91FF90EF90DF90CF90C7
:101E6000BF9008951F920F920FB60F9211242F93D7
:101E70008F939F93EF93FF93E091FE05F091FF0501
:101E80008081E0910406F091050682FD12C09081E8
:101E9000809107068F5F8F7320910806821751F09B
:101EA000E0910706F0E0E251FA4F958F8093070624
:101EB00001C08081FF91EF919F918F912F910F90A1
:101EC0000FBE0F901F9018951F920F920FB60F9292
:101ED00011242F933F934F935F936F937F938F932F
:101EE0009F93AF93BF93EF93FF938EEE95E00E9485
:101EF000280EFF91EF91BF91AF919F918F917F91AC
:101F00006F915F914F913F912F910F900FBE0F9066
:101F10001F9018958EEE95E00E94ED0D21E0892B23
:101F200009F420E0822F08951092F1051092F00537
:101F300088EE93E0A0E0B0E08093F2059093F30583
:101F4000A093F405B093F50582E292E09093EF053B
:101F50008093EE0585EC90E09093FB058093FA0565
:101F600084EC90E09093FD058093FC0580EC90E07C
:101F70009093FF058093FE0581EC90E0909301061D
:101F80008093000682EC90E0909303068093020613
:101F900086EC90E090930506809304061092070665
:101FA000109208061092090610920A0608950895E4
:101FB0000E94FD0C0E94D70F0E949504CAE1DEE04A
:101FC0000E947F052097E1F30E941A0EF9CFCF926D
:101FD000DF92EF92FF920F931F93CF93DF936C01E9
:101FE0007A01EB01E60EF71E00E010E0CE15DF05EA
:101FF00061F06991D601ED91FC910190F081E02DA5
:10200000C6010995080F191FF1CFC801DF91CF91C3
:102010001F910F91FF90EF90DF90CF900895611581
:10202000710581F0DB010D900020E9F7AD01415011
:102030005109461B570BDC01ED91FC910280F381A5
:10204000E02D099480E090E008950C940F10DC01DD
:10205000ED91FC910190F081E02D09946EE272E027
:102060000C940F100F931F93CF93DF93EC010E94FA
:102070000F108C01CE010E942E10800F911FDF9156
:10208000CF911F910F9108958F929F92AF92BF921F
:10209000CF92DF92EF92FF920F931F93CF93DF9334
:1020A000CDB7DEB7A1970FB6F894DEBF0FBECDBF98
:1020B0007C01C42EE52FCB01D22E19A221E02D15D3
:1020C00010F02AE0D22E8E010F5D1F4F8D2C912C27
:1020D000A12CB12C6C2D7E2FA50194010E94FC1324
:1020E0008C2DD29E80191124015011098A3014F4CC
:1020F000805D01C0895CF8018083211531054105AF
:10210000510521F0C22EE32FCA01E4CFB801C70167
:102110000E940F10A1960FB6F894DEBF0FBECDBF80
:10212000DF91CF911F910F91FF90EF90DF90CF90B3
:10213000BF90AF909F908F900895CF92DF92EF92D3
:10214000FF920F931F93CF93DF93EC016A017B0102
:102150002115310579F4E881F9810190F081E02DB4
:10216000642FDF91CF911F910F91FF90EF90DF903F
:10217000CF9009942A303105E9F477FF1AC06DE257
:102180000E9427108C0144275527BA014C195D097C
:102190006E097F092AE0CE010E944410800F911F32
:1021A000DF91CF911F910F91FF90EF90DF90CF9033
:1021B00008952AE0B701A601CE01DF91CF911F91CA
:1021C0000F91FF90EF90DF90CF900C9444109A0104
:1021D000AB01662757FD6095762F0C949D104F92AA
:1021E0005F926F927F928F929F92AF92BF92CF92A7
:1021F000DF92EF92FF920F931F93CF93DF93EC0147
:102200006A017B01B22E9A01AB01C701B6010E949F
:10221000F813882319F061E372E027C02601370123
:10222000E89477F82FEF3FEF4FE75FE7C301B20184
:102230000E94F81381110DC02FEF3FEF4FE75FE7CA
:10224000C301B2010E94421218161CF465E372E049
:102250000CC02FEF3FEF4FE75FE4C701B6010E94CC
:1022600091131816ACF469E372E0CE01DF91CF91BF
:102270001F910F91FF90EF90DF90CF90BF90AF90A4
:102280009F908F907F906F905F904F900C940F1065
:102290002FEF3FEF4FE75FECC701B6010E944212FC
:1022A00087FDE1CF20E030E0A901C701B6010E941F
:1022B000421287FF0AC06DE2CE010E9427108C01F6
:1022C000F7FAF094F7F8F09402C000E010E0A12CC7
:1022D00060E070E080E09FE3AB1441F020E030E08C
:1022E00040E251E40E944612A394F6CF9B01AC0158
:1022F000C701B6010E94DE116B017C010E94B3127E
:102300002B013C010E94DF129B01AC01C701B60109
:102310000E94DD116B017C012AE0B301A201CE0114
:102320000E944410080F191FBB2039F06DE372E0C2
:10233000CE010E940F10080F191F7B2C772041F14E
:1023400020E030E040E251E4C701B6010E9495135D
:102350006B017C010E94AE124B01AA2497FCA09451
:10236000BA2C2AE030E0B501A401CE010E949D10F4
:10237000080F191FC501B4010E94E1129B01AC01B5
:10238000C701B6010E94DD116B017C017A94D6CFA2
:10239000C801DF91CF911F910F91FF90EF90DF90D7
:1023A000CF90BF90AF909F908F907F906F905F90F5
:1023B0004F9008950C94EF1008955058BB27AA270A
:1023C0000ED075C166D130F06BD120F031F49F3F53
:1023D00011F41EF45BC10EF4E095E7FB51C1E92F47
:1023E00077D180F3BA17620773078407950718F04F
:1023F00071F49EF58FC10EF4E0950B2EBA2FA02D2F
:102400000B01B90190010C01CA01A0011124FF27A1
:10241000591B99F0593F50F4503E68F11A16F0409C
:10242000A22F232F342F4427585FF3CF469537959B
:102430002795A795F0405395C9F77EF41F16BA0B60
:10244000620B730B840BBAF09150A1F0FF0FBB1F0E
:10245000661F771F881FC2F70EC0BA0F621F731F57
:10246000841F48F4879577956795B795F7959E3FB4
:1024700008F0B3CF9395880F08F09927EE0F979542
:1024800087950895D9D008F481E008950CD00FC144
:1024900007D140F0FED030F021F45F3F19F0F0C0DA
:1024A000511139C1F3C014D198F39923C9F35523BD
:1024B000B1F3951B550BBB27AA2762177307840737
:1024C00038F09F5F5F4F220F331F441FAA1FA9F3ED
:1024D00033D00E2E3AF0E0E830D091505040E695DF
:1024E000001CCAF729D0FE2F27D0660F771F881F40
:1024F000BB1F261737074807AB07B0E809F0BB0B2F
:10250000802DBF01FF2793585F4F2AF09E3F510552
:1025100068F0B6C000C15F3FECF3983EDCF38695EF
:1025200077956795B795F7959F5FC9F7880F911DC8
:102530009695879597F90895E1E0660F771F881FB4
:10254000BB1F621773078407BA0720F0621B730B67
:10255000840BBA0BEE1F88F7E095089504D06894B9
:10256000B111D9C00895BCD088F09F5790F0B92F11
:102570009927B751A0F0D1F0660F771F881F991FD8
:102580001AF0BA95C9F712C0B13081F0C3D0B1E0EA
:102590000895C0C0672F782F8827B85F39F0B93FFA
:1025A000CCF3869577956795B395D9F73EF49095DA
:1025B0008095709561957F4F8F4F9F4F0895E89458
:1025C00009C097FB3EF490958095709561957F4F7B
:1025D0008F4F9F4F9923A9F0F92F96E9BB27939529
:1025E000F695879577956795B795F111F8CFFAF439
:1025F000BB0F11F460FF1BC06F5F7F4F8F4F9F4F6A
:1026000016C0882311F096E911C0772321F09EE8C7
:10261000872F762F05C0662371F096E8862F70E02D
:1026200060E02AF09A95660F771F881FDAF7880F07
:102630009695879597F90895990F0008550FAA0B5D
:10264000E0E8FEEF16161706E807F907C0F01216C5
:102650001306E407F50798F0621B730B840B950BC8
:1026600039F40A2661F0232B242B252B21F408951D
:102670000A2609F4A140A6958FEF811D811D0895BA
:1026800097F99F6780E870E060E008959FEF80EC25
:10269000089500240A9416161706180609060895C8
:1026A00000240A9412161306140605060895092E2E
:1026B0000394000C11F4882352F0BB0F40F4BF2B9D
:1026C00011F460FF04C06F5F7F4F8F4F9F4F0895DD
:1026D00057FD9058440F551F59F05F3F71F04795D3
:1026E000880F97FB991F61F09F3F79F087950895B8
:1026F000121613061406551FF2CF4695F1DF08C0D7
:10270000161617061806991FF1CF869571056105F3
:1027100008940895E894BB2766277727CB0197F99B
:1027200008958ADF08F48FEF08950BD0C0CFB1DF92
:1027300028F0B6DF18F0952309F0A2CFA7CF112417
:10274000EACFC6DFA0F3959FD1F3950F50E0551F58
:10275000629FF001729FBB27F00DB11D639FAA27F6
:10276000F00DB11DAA1F649F6627B00DA11D661F45
:10277000829F2227B00DA11D621F739FB00DA11D66
:10278000621F839FA00D611D221F749F3327A00D20
:10279000611D231F849F600D211D822F762F6A2FBC
:1027A00011249F5750408AF0E1F088234AF0EE0F41
:1027B000FF1FBB1F661F771F881F91505040A9F74E
:1027C0009E3F510570F05CCFA6CF5F3FECF3983E83
:1027D000DCF3869577956795B795F795E7959F5FB5
:1027E000C1F7FE2B880F911D9695879597F908954F
:1027F00023DF880B990B0895A1E21A2EAA1BBB1B9D
:10280000FD010DC0AA1FBB1FEE1FFF1FA217B307BC
:10281000E407F50720F0A21BB30BE40BF50B661FD2
:10282000771F881F991F1A9469F760957095809596
:1028300090959B01AC01BD01CF010895052E97FB3A
:102840001EF400940E94351457FD07D00E94FC131B
:1028500007FC03D04EF40C943514509540953095F8
:1028600021953F4F4F4F5F4F0895909580957095FC
:1028700061957F4F8F4F9F4F0895EE0FFF1F05907B
:0A288000F491E02D0994F894FFCFC5
:10288A00EC51383FCDCC3C410157696E6467757392
:10289A0074206C617374203130206D696E757465B3
:1028AA00733A0020005261696E20686F75723A00AF
:1028BA00242C77696E646469723D002C77696E64B2
:1028CA0073706565646D70683D002C77696E646726
:1028DA007573746D70683D002C77696E64677573E3
:1028EA00746469723D002C77696E647370646D70EC
:1028FA00685F617667326D3D002C77696E64646942
:10290A00725F617667326D3D002C77696E64677518
:10291A0073746D70685F31306D3D002C77696E6439
:10292A00677573746469725F31306D3D002C687528
:10293A006D69646974793D002C74656D70663D003B
:10294A002C7261696E696E3D002C6461696C7972E2
:10295A0061696E696E3D002C626174745F6C766C9D
:10296A003D002C6C696768745F6C766C3D00232CA3
:10297A000057696D702057656174686572205374D9
:10298A006174696F6E206F6E6C696E65210000005C
:10299A000000F706CA069F06A706BA06C90600007F
:1029AA0000006B0EE70FED0D060EF80D490E0D0A2D
:1029BA00006E616E00696E66006F7666002E00001A
:00000001FF
